{
  "_format": "hh-sol-artifact-1",
  "contractName": "Fantasy",
  "sourceName": "contracts/Fantasy.sol",
  "abi": [
    {
      "inputs": [
        {
          "internalType": "string",
          "name": "_name",
          "type": "string"
        },
        {
          "internalType": "string",
          "name": "_symbol",
          "type": "string"
        },
        {
          "internalType": "address",
          "name": "_newOwner",
          "type": "address"
        },
        {
          "internalType": "bool",
          "name": "_isNFT",
          "type": "bool"
        }
      ],
      "stateMutability": "nonpayable",
      "type": "constructor"
    },
    {
      "inputs": [],
      "name": "LSP4TokenNameNotEditable",
      "type": "error"
    },
    {
      "inputs": [],
      "name": "LSP4TokenSymbolNotEditable",
      "type": "error"
    },
    {
      "inputs": [
        {
          "internalType": "address",
          "name": "tokenOwner",
          "type": "address"
        },
        {
          "internalType": "uint256",
          "name": "authorizedAmount",
          "type": "uint256"
        },
        {
          "internalType": "address",
          "name": "operator",
          "type": "address"
        },
        {
          "internalType": "uint256",
          "name": "amount",
          "type": "uint256"
        }
      ],
      "name": "LSP7AmountExceedsAuthorizedAmount",
      "type": "error"
    },
    {
      "inputs": [
        {
          "internalType": "uint256",
          "name": "balance",
          "type": "uint256"
        },
        {
          "internalType": "address",
          "name": "tokenOwner",
          "type": "address"
        },
        {
          "internalType": "uint256",
          "name": "amount",
          "type": "uint256"
        }
      ],
      "name": "LSP7AmountExceedsBalance",
      "type": "error"
    },
    {
      "inputs": [],
      "name": "LSP7CannotSendWithAddressZero",
      "type": "error"
    },
    {
      "inputs": [],
      "name": "LSP7CannotUseAddressZeroAsOperator",
      "type": "error"
    },
    {
      "inputs": [],
      "name": "LSP7InvalidTransferBatch",
      "type": "error"
    },
    {
      "inputs": [
        {
          "internalType": "address",
          "name": "tokenReceiver",
          "type": "address"
        }
      ],
      "name": "LSP7NotifyTokenReceiverContractMissingLSP1Interface",
      "type": "error"
    },
    {
      "inputs": [
        {
          "internalType": "address",
          "name": "tokenReceiver",
          "type": "address"
        }
      ],
      "name": "LSP7NotifyTokenReceiverIsEOA",
      "type": "error"
    },
    {
      "anonymous": false,
      "inputs": [
        {
          "indexed": true,
          "internalType": "address",
          "name": "operator",
          "type": "address"
        },
        {
          "indexed": true,
          "internalType": "address",
          "name": "tokenOwner",
          "type": "address"
        },
        {
          "indexed": true,
          "internalType": "uint256",
          "name": "amount",
          "type": "uint256"
        }
      ],
      "name": "AuthorizedOperator",
      "type": "event"
    },
    {
      "anonymous": false,
      "inputs": [
        {
          "indexed": true,
          "internalType": "bytes32",
          "name": "dataKey",
          "type": "bytes32"
        }
      ],
      "name": "DataChanged",
      "type": "event"
    },
    {
      "anonymous": false,
      "inputs": [
        {
          "indexed": true,
          "internalType": "address",
          "name": "previousOwner",
          "type": "address"
        },
        {
          "indexed": true,
          "internalType": "address",
          "name": "newOwner",
          "type": "address"
        }
      ],
      "name": "OwnershipTransferred",
      "type": "event"
    },
    {
      "anonymous": false,
      "inputs": [
        {
          "indexed": true,
          "internalType": "address",
          "name": "operator",
          "type": "address"
        },
        {
          "indexed": true,
          "internalType": "address",
          "name": "tokenOwner",
          "type": "address"
        }
      ],
      "name": "RevokedOperator",
      "type": "event"
    },
    {
      "anonymous": false,
      "inputs": [
        {
          "indexed": true,
          "internalType": "address",
          "name": "operator",
          "type": "address"
        },
        {
          "indexed": true,
          "internalType": "address",
          "name": "from",
          "type": "address"
        },
        {
          "indexed": true,
          "internalType": "address",
          "name": "to",
          "type": "address"
        },
        {
          "indexed": false,
          "internalType": "uint256",
          "name": "amount",
          "type": "uint256"
        },
        {
          "indexed": false,
          "internalType": "bool",
          "name": "force",
          "type": "bool"
        },
        {
          "indexed": false,
          "internalType": "bytes",
          "name": "data",
          "type": "bytes"
        }
      ],
      "name": "Transfer",
      "type": "event"
    },
    {
      "inputs": [
        {
          "internalType": "address",
          "name": "operator",
          "type": "address"
        },
        {
          "internalType": "uint256",
          "name": "amount",
          "type": "uint256"
        }
      ],
      "name": "authorizeOperator",
      "outputs": [],
      "stateMutability": "nonpayable",
      "type": "function"
    },
    {
      "inputs": [
        {
          "internalType": "address",
          "name": "tokenOwner",
          "type": "address"
        }
      ],
      "name": "balanceOf",
      "outputs": [
        {
          "internalType": "uint256",
          "name": "",
          "type": "uint256"
        }
      ],
      "stateMutability": "view",
      "type": "function"
    },
    {
      "inputs": [
        {
          "internalType": "address",
          "name": "_newAdmin",
          "type": "address"
        }
      ],
      "name": "changeAdmin",
      "outputs": [],
      "stateMutability": "nonpayable",
      "type": "function"
    },
    {
      "inputs": [
        {
          "internalType": "string",
          "name": "_cid",
          "type": "string"
        }
      ],
      "name": "createLeague",
      "outputs": [],
      "stateMutability": "nonpayable",
      "type": "function"
    },
    {
      "inputs": [],
      "name": "decimals",
      "outputs": [
        {
          "internalType": "uint256",
          "name": "",
          "type": "uint256"
        }
      ],
      "stateMutability": "view",
      "type": "function"
    },
    {
      "inputs": [
        {
          "internalType": "uint256",
          "name": "_tokenId",
          "type": "uint256"
        }
      ],
      "name": "deleteLeague",
      "outputs": [],
      "stateMutability": "nonpayable",
      "type": "function"
    },
    {
      "inputs": [
        {
          "internalType": "uint256",
          "name": "_tokenId",
          "type": "uint256"
        },
        {
          "internalType": "string",
          "name": "_cid",
          "type": "string"
        }
      ],
      "name": "editLeague",
      "outputs": [],
      "stateMutability": "nonpayable",
      "type": "function"
    },
    {
      "inputs": [
        {
          "internalType": "uint256",
          "name": "_tokenId",
          "type": "uint256"
        },
        {
          "internalType": "uint256",
          "name": "_managerId",
          "type": "uint256"
        }
      ],
      "name": "exitLeague",
      "outputs": [],
      "stateMutability": "nonpayable",
      "type": "function"
    },
    {
      "inputs": [],
      "name": "fetchLeagues",
      "outputs": [
        {
          "components": [
            {
              "internalType": "string",
              "name": "cid",
              "type": "string"
            },
            {
              "internalType": "address",
              "name": "creator",
              "type": "address"
            },
            {
              "components": [
                {
                  "internalType": "string",
                  "name": "cid",
                  "type": "string"
                },
                {
                  "internalType": "address",
                  "name": "sender",
                  "type": "address"
                },
                {
                  "internalType": "uint256",
                  "name": "id",
                  "type": "uint256"
                }
              ],
              "internalType": "struct Fantasy.Manager[]",
              "name": "managers",
              "type": "tuple[]"
            },
            {
              "internalType": "uint256",
              "name": "id",
              "type": "uint256"
            }
          ],
          "internalType": "struct Fantasy.League[]",
          "name": "leagues",
          "type": "tuple[]"
        },
        {
          "internalType": "uint256",
          "name": "",
          "type": "uint256"
        },
        {
          "internalType": "uint256",
          "name": "",
          "type": "uint256"
        },
        {
          "internalType": "address",
          "name": "",
          "type": "address"
        }
      ],
      "stateMutability": "view",
      "type": "function"
    },
    {
      "inputs": [
        {
          "internalType": "uint256",
          "name": "_tokenId",
          "type": "uint256"
        }
      ],
      "name": "fetchManagers",
      "outputs": [
        {
          "components": [
            {
              "internalType": "string",
              "name": "cid",
              "type": "string"
            },
            {
              "internalType": "address",
              "name": "sender",
              "type": "address"
            },
            {
              "internalType": "uint256",
              "name": "id",
              "type": "uint256"
            }
          ],
          "internalType": "struct Fantasy.Manager[]",
          "name": "managers",
          "type": "tuple[]"
        }
      ],
      "stateMutability": "view",
      "type": "function"
    },
    {
      "inputs": [
        {
          "internalType": "bytes32[]",
          "name": "dataKeys",
          "type": "bytes32[]"
        }
      ],
      "name": "getData",
      "outputs": [
        {
          "internalType": "bytes[]",
          "name": "dataValues",
          "type": "bytes[]"
        }
      ],
      "stateMutability": "view",
      "type": "function"
    },
    {
      "inputs": [
        {
          "internalType": "bytes32",
          "name": "dataKey",
          "type": "bytes32"
        }
      ],
      "name": "getData",
      "outputs": [
        {
          "internalType": "bytes",
          "name": "dataValue",
          "type": "bytes"
        }
      ],
      "stateMutability": "view",
      "type": "function"
    },
    {
      "inputs": [
        {
          "internalType": "address",
          "name": "operator",
          "type": "address"
        },
        {
          "internalType": "address",
          "name": "tokenOwner",
          "type": "address"
        }
      ],
      "name": "isOperatorFor",
      "outputs": [
        {
          "internalType": "uint256",
          "name": "",
          "type": "uint256"
        }
      ],
      "stateMutability": "view",
      "type": "function"
    },
    {
      "inputs": [
        {
          "internalType": "uint256",
          "name": "_tokenId",
          "type": "uint256"
        },
        {
          "internalType": "string",
          "name": "_cid",
          "type": "string"
        }
      ],
      "name": "joinLeague",
      "outputs": [],
      "stateMutability": "nonpayable",
      "type": "function"
    },
    {
      "inputs": [
        {
          "internalType": "uint256",
          "name": "",
          "type": "uint256"
        }
      ],
      "name": "leagueByTokenId",
      "outputs": [
        {
          "internalType": "string",
          "name": "cid",
          "type": "string"
        },
        {
          "internalType": "address",
          "name": "creator",
          "type": "address"
        },
        {
          "internalType": "uint256",
          "name": "id",
          "type": "uint256"
        }
      ],
      "stateMutability": "view",
      "type": "function"
    },
    {
      "inputs": [
        {
          "internalType": "uint256",
          "name": "",
          "type": "uint256"
        }
      ],
      "name": "leagueIds",
      "outputs": [
        {
          "internalType": "uint256",
          "name": "",
          "type": "uint256"
        }
      ],
      "stateMutability": "view",
      "type": "function"
    },
    {
      "inputs": [],
      "name": "owner",
      "outputs": [
        {
          "internalType": "address",
          "name": "",
          "type": "address"
        }
      ],
      "stateMutability": "view",
      "type": "function"
    },
    {
      "inputs": [],
      "name": "renounceOwnership",
      "outputs": [],
      "stateMutability": "nonpayable",
      "type": "function"
    },
    {
      "inputs": [
        {
          "internalType": "address",
          "name": "operator",
          "type": "address"
        }
      ],
      "name": "revokeOperator",
      "outputs": [],
      "stateMutability": "nonpayable",
      "type": "function"
    },
    {
      "inputs": [
        {
          "internalType": "bytes32[]",
          "name": "dataKeys",
          "type": "bytes32[]"
        },
        {
          "internalType": "bytes[]",
          "name": "dataValues",
          "type": "bytes[]"
        }
      ],
      "name": "setData",
      "outputs": [],
      "stateMutability": "nonpayable",
      "type": "function"
    },
    {
      "inputs": [
        {
          "internalType": "bytes32",
          "name": "dataKey",
          "type": "bytes32"
        },
        {
          "internalType": "bytes",
          "name": "dataValue",
          "type": "bytes"
        }
      ],
      "name": "setData",
      "outputs": [],
      "stateMutability": "nonpayable",
      "type": "function"
    },
    {
      "inputs": [
        {
          "internalType": "bytes4",
          "name": "interfaceId",
          "type": "bytes4"
        }
      ],
      "name": "supportsInterface",
      "outputs": [
        {
          "internalType": "bool",
          "name": "",
          "type": "bool"
        }
      ],
      "stateMutability": "view",
      "type": "function"
    },
    {
      "inputs": [],
      "name": "totalSupply",
      "outputs": [
        {
          "internalType": "uint256",
          "name": "",
          "type": "uint256"
        }
      ],
      "stateMutability": "view",
      "type": "function"
    },
    {
      "inputs": [
        {
          "internalType": "address",
          "name": "from",
          "type": "address"
        },
        {
          "internalType": "address",
          "name": "to",
          "type": "address"
        },
        {
          "internalType": "uint256",
          "name": "amount",
          "type": "uint256"
        },
        {
          "internalType": "bool",
          "name": "force",
          "type": "bool"
        },
        {
          "internalType": "bytes",
          "name": "data",
          "type": "bytes"
        }
      ],
      "name": "transfer",
      "outputs": [],
      "stateMutability": "nonpayable",
      "type": "function"
    },
    {
      "inputs": [
        {
          "internalType": "address[]",
          "name": "from",
          "type": "address[]"
        },
        {
          "internalType": "address[]",
          "name": "to",
          "type": "address[]"
        },
        {
          "internalType": "uint256[]",
          "name": "amount",
          "type": "uint256[]"
        },
        {
          "internalType": "bool",
          "name": "force",
          "type": "bool"
        },
        {
          "internalType": "bytes[]",
          "name": "data",
          "type": "bytes[]"
        }
      ],
      "name": "transferBatch",
      "outputs": [],
      "stateMutability": "nonpayable",
      "type": "function"
    },
    {
      "inputs": [
        {
          "internalType": "address",
          "name": "newOwner",
          "type": "address"
        }
      ],
      "name": "transferOwnership",
      "outputs": [],
      "stateMutability": "nonpayable",
      "type": "function"
    }
  ],
  "bytecode": "0x60806040523480156200001157600080fd5b506040516200580838038062005808833981810160405281019062000037919062000569565b83838383838383806200005581620001a560201b62001cfd1760201c565b50620000c57feafec4d89fa9619884b60000a4d96624a38f7ac2d8d9a604ecf07c12c77e480c60001b6040518060400160405280600481526020017fa4d9662400000000000000000000000000000000000000000000000000000000815250620002ad60201b62001dfc1760201c565b620000ff7fdeba1e292f8ba88238e10ab3c7f88bd4be4fac56cad5194b6ecceaf653468af160001b84620002ad60201b62001dfc1760201c565b620001397f2f0a68ab07768e01943a599e73362a0e17a63a72e94dd2e384d2c1d4db93275660001b83620002ad60201b62001dfc1760201c565b50505080600260006101000a81548160ff0219169083151502179055505050505081601160006101000a81548173ffffffffffffffffffffffffffffffffffffffff021916908373ffffffffffffffffffffffffffffffffffffffff160217905550505050506200094b565b620001b56200030160201b60201c565b73ffffffffffffffffffffffffffffffffffffffff168173ffffffffffffffffffffffffffffffffffffffff1614620002aa5760008060009054906101000a900473ffffffffffffffffffffffffffffffffffffffff169050816000806101000a81548173ffffffffffffffffffffffffffffffffffffffff021916908373ffffffffffffffffffffffffffffffffffffffff1602179055508173ffffffffffffffffffffffffffffffffffffffff168173ffffffffffffffffffffffffffffffffffffffff167f8be0079c531659141344cd1fd0a4f28419497f9722a3daafe3b4186f6b6457e060405160405180910390a3505b50565b80600160008481526020019081526020016000209081620002cf919062000864565b50817fcdf4e344c0d23d4cdd0474039d176c55b19d531070dbe17856bfb993a5b5720b60405160405180910390a25050565b60008060009054906101000a900473ffffffffffffffffffffffffffffffffffffffff16905090565b6000604051905090565b600080fd5b600080fd5b600080fd5b600080fd5b6000601f19601f8301169050919050565b7f4e487b7100000000000000000000000000000000000000000000000000000000600052604160045260246000fd5b620003938262000348565b810181811067ffffffffffffffff82111715620003b557620003b462000359565b5b80604052505050565b6000620003ca6200032a565b9050620003d8828262000388565b919050565b600067ffffffffffffffff821115620003fb57620003fa62000359565b5b620004068262000348565b9050602081019050919050565b60005b838110156200043357808201518184015260208101905062000416565b8381111562000443576000848401525b50505050565b6000620004606200045a84620003dd565b620003be565b9050828152602081018484840111156200047f576200047e62000343565b5b6200048c84828562000413565b509392505050565b600082601f830112620004ac57620004ab6200033e565b5b8151620004be84826020860162000449565b91505092915050565b600073ffffffffffffffffffffffffffffffffffffffff82169050919050565b6000620004f482620004c7565b9050919050565b6200050681620004e7565b81146200051257600080fd5b50565b6000815190506200052681620004fb565b92915050565b60008115159050919050565b62000543816200052c565b81146200054f57600080fd5b50565b600081519050620005638162000538565b92915050565b6000806000806080858703121562000586576200058562000334565b5b600085015167ffffffffffffffff811115620005a757620005a662000339565b5b620005b58782880162000494565b945050602085015167ffffffffffffffff811115620005d957620005d862000339565b5b620005e78782880162000494565b9350506040620005fa8782880162000515565b92505060606200060d8782880162000552565b91505092959194509250565b600081519050919050565b7f4e487b7100000000000000000000000000000000000000000000000000000000600052602260045260246000fd5b600060028204905060018216806200066c57607f821691505b60208210810362000682576200068162000624565b5b50919050565b60008190508160005260206000209050919050565b60006020601f8301049050919050565b600082821b905092915050565b600060088302620006ec7fffffffffffffffffffffffffffffffffffffffffffffffffffffffffffffffff82620006ad565b620006f88683620006ad565b95508019841693508086168417925050509392505050565b6000819050919050565b6000819050919050565b6000620007456200073f620007398462000710565b6200071a565b62000710565b9050919050565b6000819050919050565b620007618362000724565b6200077962000770826200074c565b848454620006ba565b825550505050565b600090565b6200079062000781565b6200079d81848462000756565b505050565b5b81811015620007c557620007b960008262000786565b600181019050620007a3565b5050565b601f8211156200081457620007de8162000688565b620007e9846200069d565b81016020851015620007f9578190505b6200081162000808856200069d565b830182620007a2565b50505b505050565b600082821c905092915050565b6000620008396000198460080262000819565b1980831691505092915050565b600062000854838362000826565b9150826002028217905092915050565b6200086f8262000619565b67ffffffffffffffff8111156200088b576200088a62000359565b5b62000897825462000653565b620008a4828285620007c9565b600060209050601f831160018114620008dc5760008415620008c7578287015190505b620008d3858262000846565b86555062000943565b601f198416620008ec8662000688565b60005b828110156200091657848901518255600182019150602085019450602081019050620008ef565b8683101562000936578489015162000932601f89168262000826565b8355505b6001600288020188555050505b505050505050565b614ead806200095b6000396000f3fe608060405234801561001057600080fd5b506004361061018e5760003560e01c80637f23690c116100de578063b39bc1e511610097578063d95b637111610071578063d95b637114610482578063f2fde38b146104b2578063f80d1f48146104ce578063fad8b32a146104ea5761018e565b8063b39bc1e514610418578063b757538414610434578063c2ad7213146104505761018e565b80637f23690c1461036e5780638da5cb5b1461038a5780638f283970146103a8578063a1170f15146103c4578063a8a34e0a146103e0578063adfb999e146103fc5761018e565b806348217d881161014b57806370a082311161012557806370a08231146102e8578063715018a61461031857806371ddd6eb14610322578063760d9bba146103525761018e565b806348217d88146102675780634e3e6e9c1461028857806354f6127f146102b85761018e565b806301ffc9a71461019357806314a6e293146101c357806318160ddd146101df5780632a02bb19146101fd578063313ce5671461022d57806347980aa31461024b575b600080fd5b6101ad60048036038101906101a89190612fb5565b610506565b6040516101ba9190612ffd565b60405180910390f35b6101dd60048036038101906101d8919061333d565b610567565b005b6101e7610612565b6040516101f491906133ce565b60405180910390f35b61021760048036038101906102129190613415565b61061c565b604051610224919061362c565b60405180910390f35b61023561084b565b60405161024291906133ce565b60405180910390f35b6102656004803603810190610260919061367a565b610873565b005b61026f610889565b60405161027f949392919061387b565b60405180910390f35b6102a2600480360381019061029d91906138c7565b610c2e565b6040516102af9190613a27565b60405180910390f35b6102d260048036038101906102cd9190613a49565b610ce4565b6040516102df9190613ac0565b60405180910390f35b61030260048036038101906102fd9190613ae2565b610cf6565b60405161030f91906133ce565b60405180910390f35b610320610d3f565b005b61033c60048036038101906103379190613415565b610d53565b60405161034991906133ce565b60405180910390f35b61036c60048036038101906103679190613b3b565b610d77565b005b61038860048036038101906103839190613bd2565b610eaf565b005b610392610ec5565b60405161039f9190613c2e565b60405180910390f35b6103c260048036038101906103bd9190613ae2565b610eee565b005b6103de60048036038101906103d99190613ca4565b610f8c565b005b6103fa60048036038101906103f59190613e77565b611107565b005b61041660048036038101906104119190613f62565b6111fa565b005b610432600480360381019061042d9190613415565b611638565b005b61044e60048036038101906104499190613fa2565b61182d565b005b61046a60048036038101906104659190613415565b611969565b6040516104799392919061404c565b60405180910390f35b61049c6004803603810190610497919061408a565b611a3b565b6040516104a991906133ce565b60405180910390f35b6104cc60048036038101906104c79190613ae2565b611b3d565b005b6104e860048036038101906104e39190613fa2565b611bc0565b005b61050460048036038101906104ff9190613ae2565b611ce7565b005b600063e33f65c360e01b7bffffffffffffffffffffffffffffffffffffffffffffffffffffffff1916827bffffffffffffffffffffffffffffffffffffffffffffffffffffffff19161480610560575061055f82611e4e565b5b9050919050565b61056f611eaf565b80518251146105b3576040517f08c379a00000000000000000000000000000000000000000000000000000000081526004016105aa9061413c565b60405180910390fd5b60005b825181101561060d576105fd8382815181106105d5576105d461415c565b5b60200260200101518383815181106105f0576105ef61415c565b5b6020026020010151611f26565b61060681611fec565b90506105b6565b505050565b6000600354905090565b60606000600d60008481526020019081526020016000206002018054905090506000600d6000858152602001908152602001600020600201805480602002602001604051908101604052809291908181526020016000905b8282101561079857838290600052602060002090600302016040518060600160405290816000820180546106a7906141ba565b80601f01602080910402602001604051908101604052809291908181526020018280546106d3906141ba565b80156107205780601f106106f557610100808354040283529160200191610720565b820191906000526020600020905b81548152906001019060200180831161070357829003601f168201915b505050505081526020016001820160009054906101000a900473ffffffffffffffffffffffffffffffffffffffff1673ffffffffffffffffffffffffffffffffffffffff1673ffffffffffffffffffffffffffffffffffffffff16815260200160028201548152505081526020019060010190610674565b5050505090508167ffffffffffffffff8111156107b8576107b761302e565b5b6040519080825280602002602001820160405280156107f157816020015b6107de612c18565b8152602001906001900390816107d65790505b50925060005b82811015610843578181815181106108125761081161415c565b5b602002602001015184828151811061082d5761082c61415c565b5b60200260200101819052508060010190506107f7565b505050919050565b6000600260009054906101000a900460ff1661086857601261086b565b60005b60ff16905090565b61088561087e611ff9565b8383612001565b5050565b6060600080600080600c8054905090506000600c8054806020026020016040519081016040528092919081815260200182805480156108e757602002820191906000526020600020905b8154815260200190600101908083116108d3575b505050505090508167ffffffffffffffff8111156109085761090761302e565b5b60405190808252806020026020018201604052801561094157816020015b61092e612c4f565b8152602001906001900390816109265790505b50955060005b82811015610bf357600d60008383815181106109665761096561415c565b5b60200260200101518152602001908152602001600020604051806080016040529081600082018054610997906141ba565b80601f01602080910402602001604051908101604052809291908181526020018280546109c3906141ba565b8015610a105780601f106109e557610100808354040283529160200191610a10565b820191906000526020600020905b8154815290600101906020018083116109f357829003601f168201915b505050505081526020016001820160009054906101000a900473ffffffffffffffffffffffffffffffffffffffff1673ffffffffffffffffffffffffffffffffffffffff1673ffffffffffffffffffffffffffffffffffffffff16815260200160028201805480602002602001604051908101604052809291908181526020016000905b82821015610bb85783829060005260206000209060030201604051806060016040529081600082018054610ac7906141ba565b80601f0160208091040260200160405190810160405280929190818152602001828054610af3906141ba565b8015610b405780601f10610b1557610100808354040283529160200191610b40565b820191906000526020600020905b815481529060010190602001808311610b2357829003601f168201915b505050505081526020016001820160009054906101000a900473ffffffffffffffffffffffffffffffffffffffff1673ffffffffffffffffffffffffffffffffffffffff1673ffffffffffffffffffffffffffffffffffffffff16815260200160028201548152505081526020019060010190610a94565b505050508152602001600382015481525050878281518110610bdd57610bdc61415c565b5b6020026020010181905250806001019050610947565b5085600e54600f54601160009054906101000a900473ffffffffffffffffffffffffffffffffffffffff169550955095509550505090919293565b6060815167ffffffffffffffff811115610c4b57610c4a61302e565b5b604051908082528060200260200182016040528015610c7e57816020015b6060815260200190600190039081610c695790505b50905060005b8251811015610cde57610cb0838281518110610ca357610ca261415c565b5b60200260200101516121e5565b828281518110610cc357610cc261415c565b5b6020026020010181905250610cd781611fec565b9050610c84565b50919050565b6060610cef826121e5565b9050919050565b6000600460008373ffffffffffffffffffffffffffffffffffffffff1673ffffffffffffffffffffffffffffffffffffffff168152602001908152602001600020549050919050565b610d47611eaf565b610d516000611cfd565b565b600c8181548110610d6357600080fd5b906000526020600020016000915090505481565b6000610d81611ff9565b90508573ffffffffffffffffffffffffffffffffffffffff168173ffffffffffffffffffffffffffffffffffffffff1614610e9a576000600560008873ffffffffffffffffffffffffffffffffffffffff1673ffffffffffffffffffffffffffffffffffffffff16815260200190815260200160002060008373ffffffffffffffffffffffffffffffffffffffff1673ffffffffffffffffffffffffffffffffffffffff16815260200190815260200160002054905080851115610e8257868183876040517ff3a6b691000000000000000000000000000000000000000000000000000000008152600401610e7994939291906141eb565b60405180910390fd5b610e9887838784610e93919061425f565b612001565b505b610ea7868686868661228a565b505050505050565b610eb7611eaf565b610ec18282611f26565b5050565b60008060009054906101000a900473ffffffffffffffffffffffffffffffffffffffff16905090565b601160009054906101000a900473ffffffffffffffffffffffffffffffffffffffff1673ffffffffffffffffffffffffffffffffffffffff163373ffffffffffffffffffffffffffffffffffffffff1614610f4857600080fd5b80601160006101000a81548173ffffffffffffffffffffffffffffffffffffffff021916908373ffffffffffffffffffffffffffffffffffffffff16021790555050565b818160066000019182610fa092919061444a565b5033600660010160006101000a81548173ffffffffffffffffffffffffffffffffffffffff021916908373ffffffffffffffffffffffffffffffffffffffff160217905550600e60008154610ff49061451a565b9190508190556006600301819055506006600d6000600e5481526020019081526020016000206000820181600001908161102e9190614578565b506001820160009054906101000a900473ffffffffffffffffffffffffffffffffffffffff168160010160006101000a81548173ffffffffffffffffffffffffffffffffffffffff021916908373ffffffffffffffffffffffffffffffffffffffff16021790555060028201816002019080546110ac929190612c8d565b5060038201548160030155905050600c600e54908060018154018082558091505060019003906000526020600020016000909190919091505561110333600e5460016040518060200160405280600081525061251a565b5050565b8351855114158061111a57508251855114155b8061112757508051855114155b1561115e576040517f263eee8d00000000000000000000000000000000000000000000000000000000815260040160405180910390fd5b60005b85518110156111f2576111df8682815181106111805761117f61415c565b5b602002602001015186838151811061119b5761119a61415c565b5b60200260200101518684815181106111b6576111b561415c565b5b6020026020010151868686815181106111d2576111d161415c565b5b6020026020010151610d77565b80806111ea9061451a565b915050611161565b505050505050565b3373ffffffffffffffffffffffffffffffffffffffff16600d600084815260200190815260200160002060010160009054906101000a900473ffffffffffffffffffffffffffffffffffffffff1673ffffffffffffffffffffffffffffffffffffffff16148061129e57503373ffffffffffffffffffffffffffffffffffffffff166112868383612684565b73ffffffffffffffffffffffffffffffffffffffff16145b806112f657503373ffffffffffffffffffffffffffffffffffffffff16601160009054906101000a900473ffffffffffffffffffffffffffffffffffffffff1673ffffffffffffffffffffffffffffffffffffffff16145b611335576040517f08c379a000000000000000000000000000000000000000000000000000000000815260040161132c906146d2565b60405180910390fd5b6000600d6000848152602001908152602001600020600201805480602002602001604051908101604052809291908181526020016000905b8282101561149157838290600052602060002090600302016040518060600160405290816000820180546113a0906141ba565b80601f01602080910402602001604051908101604052809291908181526020018280546113cc906141ba565b80156114195780601f106113ee57610100808354040283529160200191611419565b820191906000526020600020905b8154815290600101906020018083116113fc57829003601f168201915b505050505081526020016001820160009054906101000a900473ffffffffffffffffffffffffffffffffffffffff1673ffffffffffffffffffffffffffffffffffffffff1673ffffffffffffffffffffffffffffffffffffffff1681526020016002820154815250508152602001906001019061136d565b505050509050600081519050600181036114d157600a600d60008681526020019081526020016000206002019080546114cb929190612d6b565b50611632565b600a600b9080546114e3929190612d6b565b5060005b8181101561160957838382815181106115035761150261415c565b5b602002602001015160400151146115fe57600b600d6000878152602001908152602001600020600201828154811061153e5761153d61415c565b5b90600052602060002090600302019080600181540180825580915050600190039060005260206000209060030201600090919091909150600082018160000190816115899190614578565b506001820160009054906101000a900473ffffffffffffffffffffffffffffffffffffffff168160010160006101000a81548173ffffffffffffffffffffffffffffffffffffffff021916908373ffffffffffffffffffffffffffffffffffffffff1602179055506002820154816002015550505b8060010190506114e7565b50600b600d6000868152602001908152602001600020600201908054611630929190612d6b565b505b50505050565b3373ffffffffffffffffffffffffffffffffffffffff16600d600083815260200190815260200160002060010160009054906101000a900473ffffffffffffffffffffffffffffffffffffffff1673ffffffffffffffffffffffffffffffffffffffff16146116dc576040517f08c379a00000000000000000000000000000000000000000000000000000000081526004016116d390614764565b60405180910390fd5b6000600c80548060200260200160405190810160405280929190818152602001828054801561172a57602002820191906000526020600020905b815481526020019060010190808311611716575b50505050509050600081519050600080600090505b8281101561177b578484828151811061175b5761175a61415c565b5b6020026020010151036117705780915061177b565b80600101905061173f565b5060008190505b60018361178f919061425f565b8110156117e757836001826117a49190614784565b815181106117b5576117b461415c565b5b60200260200101518482815181106117d0576117cf61415c565b5b602002602001018181525050806001019050611782565b5082600c90805190602001906117fe929190612e49565b50600c805480611811576118106147da565b5b6001900381819060005260206000200160009055905550505050565b6000604051806060016040528084848080601f016020809104026020016040519081016040528093929190818152602001838380828437600081840152601f19601f8201169050808301925050505050505081526020013373ffffffffffffffffffffffffffffffffffffffff168152602001600f600081546118af9061451a565b9190508190558152509050600d6000858152602001908152602001600020600201819080600181540180825580915050600190039060005260206000209060030201600090919091909150600082015181600001908161190f9190614809565b5060208201518160010160006101000a81548173ffffffffffffffffffffffffffffffffffffffff021916908373ffffffffffffffffffffffffffffffffffffffff16021790555060408201518160020155505050505050565b600d60205280600052604060002060009150905080600001805461198c906141ba565b80601f01602080910402602001604051908101604052809291908181526020018280546119b8906141ba565b8015611a055780601f106119da57610100808354040283529160200191611a05565b820191906000526020600020905b8154815290600101906020018083116119e857829003601f168201915b5050505050908060010160009054906101000a900473ffffffffffffffffffffffffffffffffffffffff16908060030154905083565b60008273ffffffffffffffffffffffffffffffffffffffff168273ffffffffffffffffffffffffffffffffffffffff1603611ab757600460008373ffffffffffffffffffffffffffffffffffffffff1673ffffffffffffffffffffffffffffffffffffffff168152602001908152602001600020549050611b37565b600560008373ffffffffffffffffffffffffffffffffffffffff1673ffffffffffffffffffffffffffffffffffffffff16815260200190815260200160002060008473ffffffffffffffffffffffffffffffffffffffff1673ffffffffffffffffffffffffffffffffffffffff1681526020019081526020016000205490505b92915050565b611b45611eaf565b600073ffffffffffffffffffffffffffffffffffffffff168173ffffffffffffffffffffffffffffffffffffffff1603611bb4576040517f08c379a0000000000000000000000000000000000000000000000000000000008152600401611bab9061494d565b60405180910390fd5b611bbd81611cfd565b50565b3373ffffffffffffffffffffffffffffffffffffffff16600d600085815260200190815260200160002060010160009054906101000a900473ffffffffffffffffffffffffffffffffffffffff1673ffffffffffffffffffffffffffffffffffffffff161480611c7d57503373ffffffffffffffffffffffffffffffffffffffff16601160009054906101000a900473ffffffffffffffffffffffffffffffffffffffff1673ffffffffffffffffffffffffffffffffffffffff16145b611cbc576040517f08c379a0000000000000000000000000000000000000000000000000000000008152600401611cb3906149df565b60405180910390fd5b8181600d60008681526020019081526020016000206000019182611ce192919061444a565b50505050565b611cfa611cf2611ff9565b826000612001565b50565b611d05610ec5565b73ffffffffffffffffffffffffffffffffffffffff168173ffffffffffffffffffffffffffffffffffffffff1614611df95760008060009054906101000a900473ffffffffffffffffffffffffffffffffffffffff169050816000806101000a81548173ffffffffffffffffffffffffffffffffffffffff021916908373ffffffffffffffffffffffffffffffffffffffff1602179055508173ffffffffffffffffffffffffffffffffffffffff168173ffffffffffffffffffffffffffffffffffffffff167f8be0079c531659141344cd1fd0a4f28419497f9722a3daafe3b4186f6b6457e060405160405180910390a3505b50565b80600160008481526020019081526020016000209081611e1c9190614a5a565b50817fcdf4e344c0d23d4cdd0474039d176c55b19d531070dbe17856bfb993a5b5720b60405160405180910390a25050565b600063714df77c60e01b7bffffffffffffffffffffffffffffffffffffffffffffffffffffffff1916827bffffffffffffffffffffffffffffffffffffffffffffffffffffffff19161480611ea85750611ea782612760565b5b9050919050565b3373ffffffffffffffffffffffffffffffffffffffff16611ece610ec5565b73ffffffffffffffffffffffffffffffffffffffff1614611f24576040517f08c379a0000000000000000000000000000000000000000000000000000000008152600401611f1b90614b78565b60405180910390fd5b565b7fdeba1e292f8ba88238e10ab3c7f88bd4be4fac56cad5194b6ecceaf653468af160001b8203611f82576040517f85c169bd00000000000000000000000000000000000000000000000000000000815260040160405180910390fd5b7f2f0a68ab07768e01943a599e73362a0e17a63a72e94dd2e384d2c1d4db93275660001b8203611fde576040517f76755b3800000000000000000000000000000000000000000000000000000000815260040160405180910390fd5b611fe88282611dfc565b5050565b6000600182019050919050565b600033905090565b600073ffffffffffffffffffffffffffffffffffffffff168273ffffffffffffffffffffffffffffffffffffffff1603612067576040517f6355e76600000000000000000000000000000000000000000000000000000000815260040160405180910390fd5b8273ffffffffffffffffffffffffffffffffffffffff168273ffffffffffffffffffffffffffffffffffffffff1603156121e05780600560008573ffffffffffffffffffffffffffffffffffffffff1673ffffffffffffffffffffffffffffffffffffffff16815260200190815260200160002060008473ffffffffffffffffffffffffffffffffffffffff1673ffffffffffffffffffffffffffffffffffffffff168152602001908152602001600020819055506000811461218457808373ffffffffffffffffffffffffffffffffffffffff168373ffffffffffffffffffffffffffffffffffffffff167fd66aff874162a96578e919097b6f6d153dfd89a5cec41bb331fdb0c4aec16e2c60405160405180910390a46121df565b8273ffffffffffffffffffffffffffffffffffffffff168273ffffffffffffffffffffffffffffffffffffffff167f50546e66e5f44d728365dc3908c63bc5cfeeab470722c1677e3073a6ac294aa160405160405180910390a35b5b505050565b6060600160008381526020019081526020016000208054612205906141ba565b80601f0160208091040260200160405190810160405280929190818152602001828054612231906141ba565b801561227e5780601f106122535761010080835404028352916020019161227e565b820191906000526020600020905b81548152906001019060200180831161226157829003601f168201915b50505050509050919050565b600073ffffffffffffffffffffffffffffffffffffffff168573ffffffffffffffffffffffffffffffffffffffff1614806122f15750600073ffffffffffffffffffffffffffffffffffffffff168473ffffffffffffffffffffffffffffffffffffffff16145b15612328576040517fd2d5ec3000000000000000000000000000000000000000000000000000000000815260040160405180910390fd5b6000600460008773ffffffffffffffffffffffffffffffffffffffff1673ffffffffffffffffffffffffffffffffffffffff168152602001908152602001600020549050808411156123b5578086856040517f08d479490000000000000000000000000000000000000000000000000000000081526004016123ac93929190614b98565b60405180910390fd5b60006123bf611ff9565b90506123cc8787876127ca565b84600460008973ffffffffffffffffffffffffffffffffffffffff1673ffffffffffffffffffffffffffffffffffffffff168152602001908152602001600020600082825461241b919061425f565b9250508190555084600460008873ffffffffffffffffffffffffffffffffffffffff1673ffffffffffffffffffffffffffffffffffffffff16815260200190815260200160002060008282546124719190614784565b925050819055508573ffffffffffffffffffffffffffffffffffffffff168773ffffffffffffffffffffffffffffffffffffffff168273ffffffffffffffffffffffffffffffffffffffff167f3997e418d2cef0b3b0e907b1e39605c3f7d32dbd061e82ea5b4a770d46a160a68888886040516124f093929190614bcf565b60405180910390a46125048787878661286b565b612511878787878761295a565b50505050505050565b600073ffffffffffffffffffffffffffffffffffffffff168473ffffffffffffffffffffffffffffffffffffffff1603612580576040517fd2d5ec3000000000000000000000000000000000000000000000000000000000815260040160405180910390fd5b600061258a611ff9565b9050612598600086866127ca565b83600460008773ffffffffffffffffffffffffffffffffffffffff1673ffffffffffffffffffffffffffffffffffffffff16815260200190815260200160002060008282546125e79190614784565b925050819055508473ffffffffffffffffffffffffffffffffffffffff16600073ffffffffffffffffffffffffffffffffffffffff168273ffffffffffffffffffffffffffffffffffffffff167f3997e418d2cef0b3b0e907b1e39605c3f7d32dbd061e82ea5b4a770d46a160a687878760405161266793929190614bcf565b60405180910390a461267d60008686868661295a565b5050505050565b600080600090505b600d6000858152602001908152602001600020600201805490508110156127595782600d600086815260200190815260200160002060020182815481106126d6576126d561415c565b5b9060005260206000209060030201600201540361274e57600d600085815260200190815260200160002060020181815481106127155761271461415c565b5b906000526020600020906003020160010160009054906101000a900473ffffffffffffffffffffffffffffffffffffffff169150612759565b80600101905061268c565b5092915050565b60007f01ffc9a7000000000000000000000000000000000000000000000000000000007bffffffffffffffffffffffffffffffffffffffffffffffffffffffff1916827bffffffffffffffffffffffffffffffffffffffffffffffffffffffff1916149050919050565b600073ffffffffffffffffffffffffffffffffffffffff168373ffffffffffffffffffffffffffffffffffffffff16036128185780600360008282546128109190614784565b925050819055505b600073ffffffffffffffffffffffffffffffffffffffff168273ffffffffffffffffffffffffffffffffffffffff160361286657806003600082825461285e919061425f565b925050819055505b505050565b61287c84636bb56a1460e01b612aed565b156129545760008484848460405160200161289a9493929190614cb2565b60405160208183030381529060405290508473ffffffffffffffffffffffffffffffffffffffff16636bb56a147f40b8bec57d7b5ff0dbd9e9acd0a47dfeb0101e1a203766f5ccab00445fbf39e960001b836040518363ffffffff1660e01b8152600401612909929190614d0b565b6000604051808303816000875af1158015612928573d6000803e3d6000fd5b505050506040513d6000823e3d601f19601f820116820180604052508101906129519190614dab565b50505b50505050565b61296b84636bb56a1460e01b612aed565b15612a47576000858585846040516020016129899493929190614cb2565b60405160208183030381529060405290508473ffffffffffffffffffffffffffffffffffffffff16636bb56a147fdbe2c314e1aee2970c72666f2ebe8933a8575263ea71e5ff6a9178e95d47a26f60001b836040518363ffffffff1660e01b81526004016129f8929190614d0b565b6000604051808303816000875af1158015612a17573d6000803e3d6000fd5b505050506040513d6000823e3d601f19601f82011682018060405250810190612a409190614dab565b5050612ae6565b81612ae55760008473ffffffffffffffffffffffffffffffffffffffff163b14612aa857836040517fa608fbb6000000000000000000000000000000000000000000000000000000008152600401612a9f9190613c2e565b60405180910390fd5b836040517f26c247f4000000000000000000000000000000000000000000000000000000008152600401612adc9190613c2e565b60405180910390fd5b5b5050505050565b6000806301ffc9a760e01b83604051602401612b099190614e03565b604051602081830303815290604052907bffffffffffffffffffffffffffffffffffffffffffffffffffffffff19166020820180517bffffffffffffffffffffffffffffffffffffffffffffffffffffffff838183161783525050505090506000808573ffffffffffffffffffffffffffffffffffffffff1661753084604051612b939190614e1e565b6000604051808303818686fa925050503d8060008114612bcf576040519150601f19603f3d011682016040523d82523d6000602084013e612bd4565b606091505b5091509150602081511015612bef5760009350505050612c12565b818015612c0c575080806020019051810190612c0b9190614e4a565b5b93505050505b92915050565b604051806060016040528060608152602001600073ffffffffffffffffffffffffffffffffffffffff168152602001600081525090565b604051806080016040528060608152602001600073ffffffffffffffffffffffffffffffffffffffff16815260200160608152602001600081525090565b828054828255906000526020600020906003028101928215612d5a5760005260206000209160030282015b82811115612d5957828260008201816000019081612cd69190614578565b506001820160009054906101000a900473ffffffffffffffffffffffffffffffffffffffff168160010160006101000a81548173ffffffffffffffffffffffffffffffffffffffff021916908373ffffffffffffffffffffffffffffffffffffffff16021790555060028201548160020155505091600301919060030190612cb8565b5b509050612d679190612e96565b5090565b828054828255906000526020600020906003028101928215612e385760005260206000209160030282015b82811115612e3757828260008201816000019081612db49190614578565b506001820160009054906101000a900473ffffffffffffffffffffffffffffffffffffffff168160010160006101000a81548173ffffffffffffffffffffffffffffffffffffffff021916908373ffffffffffffffffffffffffffffffffffffffff16021790555060028201548160020155505091600301919060030190612d96565b5b509050612e459190612e96565b5090565b828054828255906000526020600020908101928215612e85579160200282015b82811115612e84578251825591602001919060010190612e69565b5b509050612e929190612eec565b5090565b5b80821115612ee85760008082016000612eb09190612f09565b6001820160006101000a81549073ffffffffffffffffffffffffffffffffffffffff0219169055600282016000905550600301612e97565b5090565b5b80821115612f05576000816000905550600101612eed565b5090565b508054612f15906141ba565b6000825580601f10612f275750612f46565b601f016020900490600052602060002090810190612f459190612eec565b5b50565b6000604051905090565b600080fd5b600080fd5b60007fffffffff0000000000000000000000000000000000000000000000000000000082169050919050565b612f9281612f5d565b8114612f9d57600080fd5b50565b600081359050612faf81612f89565b92915050565b600060208284031215612fcb57612fca612f53565b5b6000612fd984828501612fa0565b91505092915050565b60008115159050919050565b612ff781612fe2565b82525050565b60006020820190506130126000830184612fee565b92915050565b600080fd5b6000601f19601f8301169050919050565b7f4e487b7100000000000000000000000000000000000000000000000000000000600052604160045260246000fd5b6130668261301d565b810181811067ffffffffffffffff821117156130855761308461302e565b5b80604052505050565b6000613098612f49565b90506130a4828261305d565b919050565b600067ffffffffffffffff8211156130c4576130c361302e565b5b602082029050602081019050919050565b600080fd5b6000819050919050565b6130ed816130da565b81146130f857600080fd5b50565b60008135905061310a816130e4565b92915050565b600061312361311e846130a9565b61308e565b90508083825260208201905060208402830185811115613146576131456130d5565b5b835b8181101561316f578061315b88826130fb565b845260208401935050602081019050613148565b5050509392505050565b600082601f83011261318e5761318d613018565b5b813561319e848260208601613110565b91505092915050565b600067ffffffffffffffff8211156131c2576131c161302e565b5b602082029050602081019050919050565b600080fd5b600067ffffffffffffffff8211156131f3576131f261302e565b5b6131fc8261301d565b9050602081019050919050565b82818337600083830152505050565b600061322b613226846131d8565b61308e565b905082815260208101848484011115613247576132466131d3565b5b613252848285613209565b509392505050565b600082601f83011261326f5761326e613018565b5b813561327f848260208601613218565b91505092915050565b600061329b613296846131a7565b61308e565b905080838252602082019050602084028301858111156132be576132bd6130d5565b5b835b8181101561330557803567ffffffffffffffff8111156132e3576132e2613018565b5b8086016132f0898261325a565b855260208501945050506020810190506132c0565b5050509392505050565b600082601f83011261332457613323613018565b5b8135613334848260208601613288565b91505092915050565b6000806040838503121561335457613353612f53565b5b600083013567ffffffffffffffff81111561337257613371612f58565b5b61337e85828601613179565b925050602083013567ffffffffffffffff81111561339f5761339e612f58565b5b6133ab8582860161330f565b9150509250929050565b6000819050919050565b6133c8816133b5565b82525050565b60006020820190506133e360008301846133bf565b92915050565b6133f2816133b5565b81146133fd57600080fd5b50565b60008135905061340f816133e9565b92915050565b60006020828403121561342b5761342a612f53565b5b600061343984828501613400565b91505092915050565b600081519050919050565b600082825260208201905092915050565b6000819050602082019050919050565b600081519050919050565b600082825260208201905092915050565b60005b838110156134a857808201518184015260208101905061348d565b838111156134b7576000848401525b50505050565b60006134c88261346e565b6134d28185613479565b93506134e281856020860161348a565b6134eb8161301d565b840191505092915050565b600073ffffffffffffffffffffffffffffffffffffffff82169050919050565b6000613521826134f6565b9050919050565b61353181613516565b82525050565b613540816133b5565b82525050565b6000606083016000830151848203600086015261356382826134bd565b91505060208301516135786020860182613528565b50604083015161358b6040860182613537565b508091505092915050565b60006135a28383613546565b905092915050565b6000602082019050919050565b60006135c282613442565b6135cc818561344d565b9350836020820285016135de8561345e565b8060005b8581101561361a57848403895281516135fb8582613596565b9450613606836135aa565b925060208a019950506001810190506135e2565b50829750879550505050505092915050565b6000602082019050818103600083015261364681846135b7565b905092915050565b61365781613516565b811461366257600080fd5b50565b6000813590506136748161364e565b92915050565b6000806040838503121561369157613690612f53565b5b600061369f85828601613665565b92505060206136b085828601613400565b9150509250929050565b600081519050919050565b600082825260208201905092915050565b6000819050602082019050919050565b600082825260208201905092915050565b600061370282613442565b61370c81856136e6565b93508360208202850161371e8561345e565b8060005b8581101561375a578484038952815161373b8582613596565b9450613746836135aa565b925060208a01995050600181019050613722565b50829750879550505050505092915050565b6000608083016000830151848203600086015261378982826134bd565b915050602083015161379e6020860182613528565b50604083015184820360408601526137b682826136f7565b91505060608301516137cb6060860182613537565b508091505092915050565b60006137e2838361376c565b905092915050565b6000602082019050919050565b6000613802826136ba565b61380c81856136c5565b93508360208202850161381e856136d6565b8060005b8581101561385a578484038952815161383b85826137d6565b9450613846836137ea565b925060208a01995050600181019050613822565b50829750879550505050505092915050565b61387581613516565b82525050565b6000608082019050818103600083015261389581876137f7565b90506138a460208301866133bf565b6138b160408301856133bf565b6138be606083018461386c565b95945050505050565b6000602082840312156138dd576138dc612f53565b5b600082013567ffffffffffffffff8111156138fb576138fa612f58565b5b61390784828501613179565b91505092915050565b600081519050919050565b600082825260208201905092915050565b6000819050602082019050919050565b600081519050919050565b600082825260208201905092915050565b60006139638261393c565b61396d8185613947565b935061397d81856020860161348a565b6139868161301d565b840191505092915050565b600061399d8383613958565b905092915050565b6000602082019050919050565b60006139bd82613910565b6139c7818561391b565b9350836020820285016139d98561392c565b8060005b85811015613a1557848403895281516139f68582613991565b9450613a01836139a5565b925060208a019950506001810190506139dd565b50829750879550505050505092915050565b60006020820190508181036000830152613a4181846139b2565b905092915050565b600060208284031215613a5f57613a5e612f53565b5b6000613a6d848285016130fb565b91505092915050565b600082825260208201905092915050565b6000613a928261393c565b613a9c8185613a76565b9350613aac81856020860161348a565b613ab58161301d565b840191505092915050565b60006020820190508181036000830152613ada8184613a87565b905092915050565b600060208284031215613af857613af7612f53565b5b6000613b0684828501613665565b91505092915050565b613b1881612fe2565b8114613b2357600080fd5b50565b600081359050613b3581613b0f565b92915050565b600080600080600060a08688031215613b5757613b56612f53565b5b6000613b6588828901613665565b9550506020613b7688828901613665565b9450506040613b8788828901613400565b9350506060613b9888828901613b26565b925050608086013567ffffffffffffffff811115613bb957613bb8612f58565b5b613bc58882890161325a565b9150509295509295909350565b60008060408385031215613be957613be8612f53565b5b6000613bf7858286016130fb565b925050602083013567ffffffffffffffff811115613c1857613c17612f58565b5b613c248582860161325a565b9150509250929050565b6000602082019050613c43600083018461386c565b92915050565b600080fd5b60008083601f840112613c6457613c63613018565b5b8235905067ffffffffffffffff811115613c8157613c80613c49565b5b602083019150836001820283011115613c9d57613c9c6130d5565b5b9250929050565b60008060208385031215613cbb57613cba612f53565b5b600083013567ffffffffffffffff811115613cd957613cd8612f58565b5b613ce585828601613c4e565b92509250509250929050565b600067ffffffffffffffff821115613d0c57613d0b61302e565b5b602082029050602081019050919050565b6000613d30613d2b84613cf1565b61308e565b90508083825260208201905060208402830185811115613d5357613d526130d5565b5b835b81811015613d7c5780613d688882613665565b845260208401935050602081019050613d55565b5050509392505050565b600082601f830112613d9b57613d9a613018565b5b8135613dab848260208601613d1d565b91505092915050565b600067ffffffffffffffff821115613dcf57613dce61302e565b5b602082029050602081019050919050565b6000613df3613dee84613db4565b61308e565b90508083825260208201905060208402830185811115613e1657613e156130d5565b5b835b81811015613e3f5780613e2b8882613400565b845260208401935050602081019050613e18565b5050509392505050565b600082601f830112613e5e57613e5d613018565b5b8135613e6e848260208601613de0565b91505092915050565b600080600080600060a08688031215613e9357613e92612f53565b5b600086013567ffffffffffffffff811115613eb157613eb0612f58565b5b613ebd88828901613d86565b955050602086013567ffffffffffffffff811115613ede57613edd612f58565b5b613eea88828901613d86565b945050604086013567ffffffffffffffff811115613f0b57613f0a612f58565b5b613f1788828901613e49565b9350506060613f2888828901613b26565b925050608086013567ffffffffffffffff811115613f4957613f48612f58565b5b613f558882890161330f565b9150509295509295909350565b60008060408385031215613f7957613f78612f53565b5b6000613f8785828601613400565b9250506020613f9885828601613400565b9150509250929050565b600080600060408486031215613fbb57613fba612f53565b5b6000613fc986828701613400565b935050602084013567ffffffffffffffff811115613fea57613fe9612f58565b5b613ff686828701613c4e565b92509250509250925092565b600082825260208201905092915050565b600061401e8261346e565b6140288185614002565b935061403881856020860161348a565b6140418161301d565b840191505092915050565b600060608201905081810360008301526140668186614013565b9050614075602083018561386c565b61408260408301846133bf565b949350505050565b600080604083850312156140a1576140a0612f53565b5b60006140af85828601613665565b92505060206140c085828601613665565b9150509250929050565b7f4b657973206c656e677468206e6f7420657175616c20746f2076616c7565732060008201527f6c656e6774680000000000000000000000000000000000000000000000000000602082015250565b6000614126602683614002565b9150614131826140ca565b604082019050919050565b6000602082019050818103600083015261415581614119565b9050919050565b7f4e487b7100000000000000000000000000000000000000000000000000000000600052603260045260246000fd5b7f4e487b7100000000000000000000000000000000000000000000000000000000600052602260045260246000fd5b600060028204905060018216806141d257607f821691505b6020821081036141e5576141e461418b565b5b50919050565b6000608082019050614200600083018761386c565b61420d60208301866133bf565b61421a604083018561386c565b61422760608301846133bf565b95945050505050565b7f4e487b7100000000000000000000000000000000000000000000000000000000600052601160045260246000fd5b600061426a826133b5565b9150614275836133b5565b92508282101561428857614287614230565b5b828203905092915050565b600082905092915050565b60008190508160005260206000209050919050565b60006020601f8301049050919050565b600082821b905092915050565b6000600883026143007fffffffffffffffffffffffffffffffffffffffffffffffffffffffffffffffff826142c3565b61430a86836142c3565b95508019841693508086168417925050509392505050565b6000819050919050565b600061434761434261433d846133b5565b614322565b6133b5565b9050919050565b6000819050919050565b6143618361432c565b61437561436d8261434e565b8484546142d0565b825550505050565b600090565b61438a61437d565b614395818484614358565b505050565b5b818110156143b9576143ae600082614382565b60018101905061439b565b5050565b601f8211156143fe576143cf8161429e565b6143d8846142b3565b810160208510156143e7578190505b6143fb6143f3856142b3565b83018261439a565b50505b505050565b600082821c905092915050565b600061442160001984600802614403565b1980831691505092915050565b600061443a8383614410565b9150826002028217905092915050565b6144548383614293565b67ffffffffffffffff81111561446d5761446c61302e565b5b61447782546141ba565b6144828282856143bd565b6000601f8311600181146144b1576000841561449f578287013590505b6144a9858261442e565b865550614511565b601f1984166144bf8661429e565b60005b828110156144e7578489013582556001820191506020850194506020810190506144c2565b868310156145045784890135614500601f891682614410565b8355505b6001600288020188555050505b50505050505050565b6000614525826133b5565b91507fffffffffffffffffffffffffffffffffffffffffffffffffffffffffffffffff820361455757614556614230565b5b600182019050919050565b600081549050614571816141ba565b9050919050565b81810361458657505061465e565b61458f82614562565b67ffffffffffffffff8111156145a8576145a761302e565b5b6145b282546141ba565b6145bd8282856143bd565b6000601f8311600181146145ec57600084156145da578287015490505b6145e4858261442e565b865550614657565b601f1984166145fa8761429e565b96506146058661429e565b60005b8281101561462d57848901548255600182019150600185019450602081019050614608565b8683101561464a5784890154614646601f891682614410565b8355505b6001600288020188555050505b5050505050505b565b7f4f6e6c792061646d696e206f722073656e6465722063616e2072656d6f76652060008201527f61206d616e616765722066726f6d206c65616775650000000000000000000000602082015250565b60006146bc603583614002565b91506146c782614660565b604082019050919050565b600060208201905081810360008301526146eb816146af565b9050919050565b7f6f6e6c792063726561746f72206f722061646d696e2063616e2064656c65746560008201527f2061206c65616775650000000000000000000000000000000000000000000000602082015250565b600061474e602983614002565b9150614759826146f2565b604082019050919050565b6000602082019050818103600083015261477d81614741565b9050919050565b600061478f826133b5565b915061479a836133b5565b9250827fffffffffffffffffffffffffffffffffffffffffffffffffffffffffffffffff038211156147cf576147ce614230565b5b828201905092915050565b7f4e487b7100000000000000000000000000000000000000000000000000000000600052603160045260246000fd5b6148128261346e565b67ffffffffffffffff81111561482b5761482a61302e565b5b61483582546141ba565b6148408282856143bd565b600060209050601f8311600181146148735760008415614861578287015190505b61486b858261442e565b8655506148d3565b601f1984166148818661429e565b60005b828110156148a957848901518255600182019150602085019450602081019050614884565b868310156148c657848901516148c2601f891682614410565b8355505b6001600288020188555050505b505050505050565b7f4f776e61626c653a206e6577206f776e657220697320746865207a65726f206160008201527f6464726573730000000000000000000000000000000000000000000000000000602082015250565b6000614937602683614002565b9150614942826148db565b604082019050919050565b600060208201905081810360008301526149668161492a565b9050919050565b7f4f6e6c792063726561746f72206f722061646d696e2063616e2065646974206160008201527f206c656167756500000000000000000000000000000000000000000000000000602082015250565b60006149c9602783614002565b91506149d48261496d565b604082019050919050565b600060208201905081810360008301526149f8816149bc565b9050919050565b60008190508160005260206000209050919050565b601f821115614a5557614a26816149ff565b614a2f846142b3565b81016020851015614a3e578190505b614a52614a4a856142b3565b83018261439a565b50505b505050565b614a638261393c565b67ffffffffffffffff811115614a7c57614a7b61302e565b5b614a8682546141ba565b614a91828285614a14565b600060209050601f831160018114614ac45760008415614ab2578287015190505b614abc858261442e565b865550614b24565b601f198416614ad2866149ff565b60005b82811015614afa57848901518255600182019150602085019450602081019050614ad5565b86831015614b175784890151614b13601f891682614410565b8355505b6001600288020188555050505b505050505050565b7f4f776e61626c653a2063616c6c6572206973206e6f7420746865206f776e6572600082015250565b6000614b62602083614002565b9150614b6d82614b2c565b602082019050919050565b60006020820190508181036000830152614b9181614b55565b9050919050565b6000606082019050614bad60008301866133bf565b614bba602083018561386c565b614bc760408301846133bf565b949350505050565b6000606082019050614be460008301866133bf565b614bf16020830185612fee565b8181036040830152614c038184613a87565b9050949350505050565b60008160601b9050919050565b6000614c2582614c0d565b9050919050565b6000614c3782614c1a565b9050919050565b614c4f614c4a82613516565b614c2c565b82525050565b6000819050919050565b614c70614c6b826133b5565b614c55565b82525050565b600081905092915050565b6000614c8c8261393c565b614c968185614c76565b9350614ca681856020860161348a565b80840191505092915050565b6000614cbe8287614c3e565b601482019150614cce8286614c3e565b601482019150614cde8285614c5f565b602082019150614cee8284614c81565b915081905095945050505050565b614d05816130da565b82525050565b6000604082019050614d206000830185614cfc565b8181036020830152614d328184613a87565b90509392505050565b6000614d4e614d49846131d8565b61308e565b905082815260208101848484011115614d6a57614d696131d3565b5b614d7584828561348a565b509392505050565b600082601f830112614d9257614d91613018565b5b8151614da2848260208601614d3b565b91505092915050565b600060208284031215614dc157614dc0612f53565b5b600082015167ffffffffffffffff811115614ddf57614dde612f58565b5b614deb84828501614d7d565b91505092915050565b614dfd81612f5d565b82525050565b6000602082019050614e186000830184614df4565b92915050565b6000614e2a8284614c81565b915081905092915050565b600081519050614e4481613b0f565b92915050565b600060208284031215614e6057614e5f612f53565b5b6000614e6e84828501614e35565b9150509291505056fea2646970667358221220d70506d662ed6caec81156d6219f3f0f73f8625060abc965676b1bf8d0edf36064736f6c634300080f0033",
  "linkReferences": {},
  "deployedLinkReferences": {}
}